:1010000000100020A91C00008D1C0000A51C000081
:1010100000000000000000000000000000000000D0
:101020000000000000000000000000008D1C000017
:1010300000000000000000008D1C0000191D0000D1
:101040008D1C00008D1C00008D1C00008D1C0000FC
:101050008D1C00008D1C00008D1C0000911C0000E8
:101060008D1C0000191C0000091C00008D1C0000D4
:101070008D1C00008D1C00008D1C00008D1C0000CC
:101080008D1C00008D1C00008D1C000010B5064C4E
:101090002378002B07D1054B002B02D0044800E039
:1010A00000BF0123237010BD80010020000000005C
:1010B0007C3E0000044B10B5002B03D003490448CC
:1010C00000E000BF10BDC046000000008401002009
:1010D0007C3E0000E12110B50248490201F080F990
:1010E00010BDC0465C0400207047000010B504002D
:1010F0000100024801F0F6F8200010BD5C04002059
:1011000010B5024801F020F9C0B210BD5C04002007
:1011100010B5024801F0F6F810BDC0465C0400208E
:10112000F8B5451E07000C0000F0B6FC0600EDB255
:101130000F4800F089FC03231842F9D1300000F079
:10114000C5FC280000F058FC0A4E3D193319987967
:1011500000F0CDFCEDB20134E4B2AC4206D033195C
:10116000987900F0E1FC00F0FDFCF4E72000F8BD08
:1011700002100000A001002070B5FFF7C1FF1B287E
:1011800001D0002070BD224900F0C0FC0026040000
:10119000FFF7B6FF1F4D2100A85500F0B7FC013640
:1011A0000400062EF4D1E122EB78A9781B0252004C
:1011B0000B439342E5D8FFF7A3FF0E28E1D12100AE
:1011C00000F0A4FC00260400EA78AB7812021A436F
:1011D0002B791B041A436B791B0613439E420AD2D8
:1011E000FFF78EFFAB192100987100F08FFC0136DC
:1011F0000400B6B2E8E7FFF783FF0500FFF780FFC2
:1012000003022B439BB21B1B58425841C0B2B9E7A3
:10121000FFFF0000A001002070B51B20FFF766FF54
:10122000184900F073FC00250400174E705DFFF7AD
:101230005DFF210000F06AFC01350400062DF4D1A9
:101240000E20FFF753FF210000F060FC0025040092
:10125000F378B2781B021343AB420AD97319987919
:10126000FFF744FF210000F051FC01350400ADB24E
:10127000EEE7E0B22412FFF739FFE0B2FFF736FFE6
:1012800070BDC046FFFF0000A001002010B5FFF7B1
:101290003FFF024B1878FFF727FF10BD9F0100208A
:1012A0000122034B9A7000229871DA707047C04691
:1012B000A001002010B5022404220E4B01201C7056
:1012C0000D4B1A7000F05CFC0821032000F0A0FB1D
:1012D0008021200000F09CFB00231D21074A0848C4
:1012E0009170D370074A195CD15401331D2BFAD188
:1012F00010BDC0469E0100209F010020A0010020DB
:1013000060000020A601002010B51D4BD8790138DF
:10131000052830D802F0B2FA030B192F2127032237
:101320009A700022DA700132DA711A720AE005222C
:101330009A7000220121DA700732DA715A72013A8A
:1013400019729A7281229A7118E002229A70002210
:10135000DA700C4A1278DA71F4E702229A700022ED
:10136000DA70094AF6E703229A700022DA708832AE
:10137000DA71753AD9E7A120FFF792FF10BDC04698
:10138000A00100209E0100209F01002010B5094B04
:10139000DA79032A03D0052A08D0A12003E01A7ABB
:1013A000054B80201A70FFF77BFF10BD1A7A034BA4
:1013B000F7E7C046A00100209E0100209F01002009
:1013C000074B10B51A00FA321178064AFC33117037
:1013D0001A78054B80201A70FFF762FF10BDC046D7
:1013E000A00100209C0100209D0100200B2010B5D1
:1013F00000F01DFBEF23184008280AD082280AD0ED
:101400000222074B9A700022DA70A5329A71D871C5
:1014100004E000F0E1FA8020FFF742FF10BDC04673
:10142000A001002070B50B2000F001FB174C08282C
:1014300008D00223A3700023E370A533A371A43B5B
:10144000E37170BD637A257A1B021D43637B207BA9
:101450001B022EB21843013E00F038FBF0B200F040
:10146000CBFA00F029FB0226E071AE4206D800F06C
:1014700079FBA31901369871B6B2F6E70135ABB224
:101480001B0AE3708223A570A371DAE7A001002094
:1014900070B50500552000F047FBE02000F044FB4C
:1014A0000824013C2878E4B200F03EFB0135002C12
:1014B000F7D170BD10B500F08FFA0B2000F0B7FA2D
:1014C000EF231840082806D082280DD10B48FFF7DB
:1014D000DFFF00F081FA80200421400100F0C5FA0E
:1014E0008020FFF7DDFE10BD0222054B9A7000221E
:1014F000DA70A5329A71D871F5E7C04691000020E4
:10150000A001002070B5164AD379052B05D8032B0E
:101510000FD8002B05D0A0201EE0063B012BFAD8E7
:1015200070BD1048FFF7B4FF00F056FAFFF7C2FF96
:10153000F6E70326157A547A0B4800F085FA304214
:10154000FAD12002FF21284300F08FFA80200221E7
:10155000400100F08AFA8020FFF7A2FEE0E7C046D3
:10156000A0010020890000200210000070B50500D5
:1015700000F092FA040080202900400100F075FA82
:10158000200000F0A3FA70BDF7B50B2000F04FFA71
:10159000394B082808D002229A700022DA70A5324E
:1015A0009A71A43ADA71F7BDDA79587B11001D7B84
:1015B000000240310543C9B22EB2012929D82F4A71
:1015C000177801220092587A1C7A0002044323B251
:1015D00028000193764200F079FA781E0640F6B2B0
:1015E000A64201DD6B461E790A25002E09D029008E
:1015F0003000FFF795FD0500A41BA4B20098FFF78B
:10160000B5FF002C2FD0BEB2BC422ED3290038002B
:10161000EFE71B490F78B32A05D8B12A0ED8A220CC
:10162000FFF73EFEBFE7C12A03D8BF2AF7D903223E
:10163000C8E73C32D2B2012AF1D8F8E71C7C114845
:1016400000F044FA200000F052FA002000F04FFAB7
:10165000F0B200F04CFA280A00F049FA8020072185
:10166000400100F002FA8020DAE72900E0B2FFF73B
:1016700057FD00240500C1E7A00100209C010020C7
:101680009D0100200610000010B50121002000F08F
:10169000F1FBFFF71FFD00F0ABFA054B05481A8878
:1016A000054B196801F0FEFFFFF704FE10BDC046B0
:1016B00086000020BC03002080000020AF4BF7B55F
:1016C0001B78002B00D0FFE0AD4E300001F0E0FEB3
:1016D000AC4C051E1BD0EFF3108372B6AA4F20004E
:1016E0003B6000F0FDFDA84203DA200000F0F8FDA9
:1016F00005003B6883F31088A44F2A0039003000AE
:1017000000F0DDFD2A003900200000F001FE20007D
:1017100000F0F2FD051E1BD0EFF3108372B69A4F56
:1017200030003B6001F0C5FEA84203DA300001F052
:10173000C0FE05003B6883F31088944F2A003900EF
:10174000200000F04EFE2A003900300000F08AFC34
:10175000200000F06BFE8E4F3B7883420FD0F022CA
:101760008C4D20002B8893432B8000F05FFE0122DC
:10177000894B38701A70904239D002283CD0200032
:1017800000F05AFE854F3B78834215D00F22814DE1
:1017900020002B8893432B8000F04EFE01227E4BCD
:1017A00038701A7090422AD0022828D0002803D11D
:1017B00003232A8813432B80200000F043FE784F38
:1017C0003B78834223D0734D764A2B882000134008
:1017D0002B8000F037FE01226F4B387005381A70ED
:1017E000032814D82A8802F049F80E5B5E601023A3
:1017F0002A8813432B80C2E730232A88F9E72B88F5
:1018000018432880D8E780235B0013432B8096235E
:10181000654DDB002A689A4215D1200000F018FEC1
:10182000019000280FD100F085FA604F3B68C01A84
:10183000C82808D90123514A137000F07BFA5C4B89
:101840001860019B3B60200000F0EAFD2B68594FB7
:1018500098422DD0200000F0FBFD3870200000F0F1
:10186000F7FD00282FD0200000F0DAFD28603000BE
:1018700001F000FE96232968DB00994223D0002462
:10188000444B30001A8801F00DFF434B59210820CA
:101890001C7000F0BDF82100082000F0B9F812E03B
:1018A00080239B00B1E7C023FBE78023DB00ACE78C
:1018B000394B1B78002BCDD1200000F0C9FD00234F
:1018C000FB569842C6D1F7BD2C4B1B78002BFAD0A3
:1018D000364C2368002B1CD100F02CFA344B1B68CB
:1018E000C01A354B98421CD8FFF746FC0028EAD0B6
:1018F000324B987915281CD801F0C0FF2F1F2926DC
:1019000067641D1D381D1D2C3C1D1D381D1D1D1D12
:101910002C3200F00FFA2368C01AFA235B009842B9
:10192000DAD90023154A137001221F4B52421A6064
:10193000C9E734284CD0A02019E0FFF7BBFCFFF723
:101940006BFCFFF7A3FCBEE7FFF7DEFCF7E7FFF752
:101950001DFDF4E7FFF7AEFDF1E70422184B1A7006
:10196000FFF744FD00F0E6F92060E8E78020FFF78C
:1019700097FCE4E7FFF724FDE1E7C046B103002050
:10198000BC0300205C0400206C03002071030020D5
:1019900088000020860000207003002068030020DB
:1019A00085000020FFF0FFFF80000020B40300202E
:1019B000B80300208400002060EA0000A00100209D
:1019C0009F010020FFF72EFDB9E7FFF7DDFDB6E729
:1019D000FFF798FDB3E7C04610B55921082000F085
:1019E00017F80021082000F013F80E240B2000F057
:1019F0001EF82042FAD010BD10B50400552000F0AA
:101A000093F8A02000F090F8200000F08DF810BDB1
:101A100070B5040055200D0000F086F82000403815
:101A2000C0B200F081F8280000F07EF870BD10B55B
:101A30000400552000F078F820008038C0B200F093
:101A400073F800F08FF810BD10B50400552000F0B9
:101A50006BF8042000F068F8E0B200F065F8200AA6
:101A600000F062F800F07EF810BD70B504000D00C3
:101A7000552000F059F8442000F056F8E0B200F08C
:101A800053F8200A00F050F800F06CF8280000F03D
:101A90004BF800F067F870BD10B5552000F044F821
:101AA000292000F041F800F05DF8040000F05AF839
:101AB0000002204380B210BD10B5552000F034F86C
:101AC000242000F031F800F04DF810BD10B50400EE
:101AD000552000F029F8692000F026F8E0B200F067
:101AE00023F8200A00F020F800F03CF810BD10B5F3
:101AF0000400552000F018F8642000F015F82000CC
:101B000000F012F800F02EF810BD0000FF2248404F
:101B1000044BC0B24000C35A09125940C8B29343A3
:101B200018437047703B000070B50D4D0100040074
:101B3000280001F04BFD280001F0AFFC00F0FAF89E
:101B40000600280001F0A4FC002804D100F0F2F8FF
:101B5000801B1328F5D9280001F0B0FC200070BDCF
:101B60000004002010B5054C200001F091FC002875
:101B7000F9D0200001F0A2FCC0B210BD000400208A
:101B8000962170B5174C0500174A2000490001F056
:101B900089FD002D1BD0012D0DD10021200001F069
:101BA00015FD200001F079FC0021200001F00EFD60
:101BB000200001F072FC0F2000F0C2F8200001F0BC
:101BC00067FC051E05D0200001F078FCF6E729002F
:101BD000EBE7E1212000054A890201F063FD2800BE
:101BE00070BDC04600040020130400003104000052
:101BF000E12110B5024A0348890201F053FD10BDEE
:101C0000310400000004002010B5024801F09EFCE1
:101C100010BDC046BC03002010B5024801F096FC80
:101C200010BDC04600040020F7B5002601240F4D6A
:101C30000F49280000F038FA0E4F0F49380000F025
:101C400033FA0E490E4800F02FFA390023000196AE
:101C5000022200940B4801F04DFC29000196032359
:101C600004220094084801F045FCF7BD440400201C
:101C70000008004248040020000C0042001000420E
:101C80004C040020BC03002000040020FEE70000FC
:101C9000034B10B51B68002B00D0984710BDC04601
:101CA000500400200DBEFEE7134A1448110010B581
:101CB000134B824202D0934212D11300824212D1BE
:101CC0000222104B5A62104B0832DA700F4B20324E
:101CD0009A7300F061F801F04DFDFEE710CB10C1E2
:101CE0008142FBD3EAE70A4A8B42E9D00021094B43
:101CF0009A42E5D202C2FBE70000002080010020EA
:101D0000803E0000FC70004100500041004800414E
:101D1000800100204408002010B500F02AF80028B7
:101D200001D100F01BF810BD014B18607047C04690
:101D300050040020014B18687047C046540400202E
:101D400070B5041E07D0044D2E6800F011F82B6802
:101D50009B1BA342F9D370BD5404002010B5034A65
:101D600013680133136000F08FF910BD5404002094
:101D70007047002070470000024A53785BB2002B86
:101D8000FBDB7047000C004010230249CA681A426E
:101D9000FCD0704700080040822210B5154B164C4D
:101DA0005A60A38C023A9343A384FFF7EDFF80228D
:101DB000124B92001B689B0E9B021343A362104BB5
:101DC000E36292235B00A384FFF7DEFF0223A28C71
:101DD0001343A384FFF7D8FF80230A4C5B00A36062
:101DE000FFF7CAFF084B6360FFF7C6FF074B084ABF
:101DF0001A6010BD004000410008004024608000CF
:101E000080BB0A7C000C0040000703009C000020FF
:101E1000006CDC02C0201249124B134A10B54B6013
:101E2000136A00061B021B0A0343136200240723E4
:101E30008C600B608021136A09061B021B0A0B438E
:101E400013620A4B196A1A6A1143094A0A431A6251
:101E500020001A21013400F00DF8072CF8D110BD34
:101E600010E000E07FBB000000ED00E00004004057
:101E7000FC05000010B500F053F810BDF7B50C22BA
:101E80004243244D0191535D042B2DD00027AA1805
:101E90005278214EDB01D418A419204E24789E5983
:101EA000E4B2BE4203D0013797407E1EB7411B4EBD
:101EB0009E193669B44600266146B14203D0013608
:101EC0009640711E8E41002F17D10C37784301992F
:101ED0002D18686801290DD1012E06D1410706D4BD
:101EE000D3180D4A9B181C70F7BD0107F8D50421C3
:101EF0000C43F5E704218C43F2E701209040019A5E
:101F0000012A03D1054A9B189861EDE7034A9B1803
:101F10005861E9E7703D0000404400410044004141
:101F20000C225043494B70B5C65C1B185C78DD78B9
:101F3000042E00D187E0081F172842D801F09EFC2C
:101F40000C313131414141413333393D3D41414112
:101F50004141413F418341830023002E33D0F001B2
:101F60003B4E221892191678042232404E1F022E40
:101F70003BD82D0701D540252A4372B6002901D050
:101F80001A2935D10123A340324941184B608B6196
:101F900004239A432E4923185B181A7062B6002056
:101FA00070BD0123D9E706232B405A1E9341043309
:101FB000D3E701232B400233CFE70623CDE70723E6
:101FC000CBE70923C9E7022CC9D10629C7D0224A89
:101FD00010780028C3D01670204A1078A0431070E3
:101FE000D079C0090128FBD0B9E702263243C0E707
:101FF0008D1E012D0CD80123A340164D45196B6091
:10200000032903D16B6104231A43C3E7AB61FAE7E9
:10201000012904D1A1400F4BC3189960B8E71049BA
:1020200065082D186D18E10707D50F2629781B01C3
:1020300031400B432B700123E6E70F262978B1438B
:1020400019432970F7E701204042A9E7703D0000DD
:102050004044004100440041580400200028004250
:1020600030440041F8B505000E0017000024BC42C2
:1020700008D02B682800315D1B689847002801D0E4
:102080000134F4E72000F8BD054A10B51368591C67
:1020900005D0013B1360002B01D1024B984710BDC6
:1020A000A000002001000020016070479446F0B5B8
:1020B00005AC25789C1E621E944162460668920714
:1020C000376824063A4322430724326000682140DF
:1020D000AD01002442682943022B00D05C030A436F
:1020E00022434260F0BD30B5C0250368AD031C68D3
:1020F00012052A402243C0240904A40221400A43B5
:102100001A6003685A6814435C6030BD012302689A
:1021100011680B43136003681A68D207FCD4DA69AC
:10212000D207F9D470470223026811680B43136089
:102130000268D3699B07FCD4704703681A7ED207F4
:1021400002D41A7E9207FCD57047002203685A8396
:1021500070470368187E4007C00F70470368187EF9
:10216000C0097047802302685B42117E0B431376DF
:1021700070470368187EC007C00F70470368188D4A
:10218000C0B2704703681A7ED207FCD589B201201D
:1021900019857047012203689A7570470122036808
:1021A0001A7570470368194A30B5934227D0184A08
:1021B000934227D0174A934220D10B2310210325A5
:1021C00001229A402B40AB40C224FC359D4012486E
:1021D000A40002600259AA43C0259D402B0013436E
:1021E00080220351D2010D4B0A435A800C4A1168D8
:1021F0000C4A11605A7852B2002AFBDB30BD092329
:102200000E21DCE70A230F21D9E7C046000800426F
:10221000000C00420010004200E100E0000C004011
:102220009C000020A4000020F8B504000F00160058
:102230001D00FFF7B7FF2000FFF768FF1C21BB0060
:102240000B4071072268090C0B431360842322683A
:102250009375012F1AD11021012E00D008390C4B93
:1022600069431868C00001F013FB0722216802408F
:102270008B895203DB04DB0C13438B81226803043C
:102280009089DB0C400B400318439081F8BDC04699
:10229000A400002010B50400FFF74CFDE0602368A7
:1022A00020005B699847002808DAFFF743FDE368E0
:1022B000C01AA3689842F2D30120404210BDF8B57D
:1022C00006000D0017000024BC4207D03000FFF7C5
:1022D000E1FF002802DB28550134F5E72000F8BDB6
:1022E0003F20704713B56B460268D97107335468B5
:1022F00019000122A04716BD10B50221006900F0A7
:10230000ADFC10BD10B50321006900F0BDFC10BD8F
:1023100010B5130004000A000069032100F0ACFDB1
:10232000002801D10123636010BD000010B5054CE9
:1023300003002068421C04D11A68180052699047B3
:10234000206010BDF0000020074A0300106810B59F
:10235000411C03D001235B42136010BD02211869A8
:1023600000F07CFDF9E7C046F000002010B50378CE
:102370003A22023303700249024800F029FE10BDE0
:10238000B40000207804002010B5027800244378BF
:10239000A12A09D1212B05D10E490F489A3A00F004
:1023A00017FE0134200010BD212AFBD1202B05D1BE
:1023B00008491A3A084800F0ABFCF3E7222B05D095
:1023C000232BEFD14288054B1A60EBE78278014B53
:1023D000DA71E7E7AC00002078040020A8000020B4
:1023E0007047F7B5050017000191FFF7A3FC002423
:1023F000E860BC4211D2019A022128693B1B1219E4
:1024000000F0C0FC061E01D0A419F2E7FFF792FC11
:10241000EB68C01AAB689842F6D32000FEBD0000FE
:10242000014B18687047C046AC000020014B18797A
:10243000C0B27047AC000020014B5879C0B2704761
:10244000AC000020014B9879C0B27047AC0000206E
:10245000024BD879012318407047C046AC000020D9
:10246000FA220021054B92009A60054A08321A6050
:10247000044A59601A6119767047C0465C0400200E
:10248000C43D000078040020704770B50F26CB1DB6
:1024900002003240D5B22C0000093034092A00DD98
:1024A00007341C705A1E994200D170BD1300EFE72B
:1024B00010B5040001F082F9200010BD70B582292A
:1024C0001FD1C3B22A4D5A01AA189169294C800123
:1024D0000C40C021890521439161274908334018E8
:1024E0005061802228685B01C1180C795242224356
:1024F0000A7170211A5C8A43110030220A431A546F
:1025000070BD0029FCD1C026C1B219484B01C318C7
:102510009A68184DB6052A4032439A60083104681B
:1025200048010721154A5A60025D8A4311000122C1
:102530000A43702102559A692A4032439A610E4A31
:102540005A61025D8A43110010220A4302559A68BB
:102550000B4920181140802252030A439A609A685E
:10256000920B92039A604023427913434371C7E769
:1025700030070020FFFFFF8FA40400206405002027
:10258000FF3F00F070B50400012320CC00212A7821
:102590002000134380222B70520001F002FAAB7826
:1025A000DB07FCD46C6270BD1F22144B70B51B6836
:1025B000590B9C0C9B0111405B0F22401F2900D13D
:1025C0001A391F2A00D1023A072B00D1043B1F25DC
:1025D00000688E01048D0A492A402140314301855B
:1025E000018D14000A00AA4322430285028D1903BB
:1025F000044B13400B43038570BDC046246080002C
:102600003FF8FFFFFF8FFFFFEFF31083036001230D
:10261000436072B670470368002B02D162B6BFF305
:102620006F8F7047836973B50400002B18D10600C3
:10263000683635786846FFF7E7FF019BEDB2013B4E
:1026400002D33578EDB2FAE768460193FFF7E3FF6E
:10265000002D01D1002076BD606E236EC01AFAE70E
:102660006846FFF7D1FF22000025019BB432013BF1
:1026700002D31578EDB2FAE768460193FFF7CBFF76
:10268000002DE7D02300AC34B03318682368E5E7A9
:1026900010B543694468DBB25A01A2189168094831
:1026A00008330840802149030143916091685B0130
:1026B000890B890391602268D318402219790A4353
:1026C0001A7110BDFF3F00F0F7B504006846FFF730
:1026D0009BFF0026019B5A1E0192002B05D0200073
:1026E000083001F0A6F80600F4E76846FFF793FF0C
:1026F000A5696846002D49D1FFF786FF2000019BA0
:102700006830013B5A1C0BD00278591E002A05D1B3
:1027100068460193FFF77FFF2800FEBD0B00F1E73D
:1027200068460193FFF777FF236EB5420ED0626EC5
:102730009A420BD920005A1CE31822660133D97F34
:102740000830C9B201F04DF80135EDE7626E9A42EA
:10275000E2D10023236601336846A361FFF754FFEB
:10276000270022000021019B6837013BB532581C2D
:10277000CED0397010785E1E002805D02000117070
:102780000193FFF785FFEBE73300F0E7FFF73CFF2E
:102790002000019BB430013B5A1C06D00278591E20
:1027A000D5B2002AB4D00B00F6E7684601930025A5
:1027B000FFF731FF22002100AC321368B031B5427F
:1027C00002D0086898421DD809689942A4D1002314
:1027D00068461360A361FFF717FF2700220000215E
:1027E000019BB437013BB532581C00D190E73970DA
:1027F00010785E1E002811D0200011700193FFF7A1
:1028000047FFEAE72000591CE31811606C33197880
:102810000830C9B200F0E5FF0135CBE73300E3E74C
:1028200010B50400FFF750FF2000083001F00FF84A
:1028300010BD10B50400FFF747FF2000083000F07E
:10284000F2FF10BDF0B585B0160001910500FFF74D
:102850003BFF02A8FFF7D8FE0024039B5A1E0392F9
:10286000002B0FD0B442F8D22F000837380000F008
:10287000DAFF0028F1D0380000F0C4FF019B1855A2
:102880000134EFE702A8FFF7C6FE200005B0F0BD57
:10289000F7B542694368D2B21100040008311868E4
:1028A00049014118C979C90712D552019B189A6884
:1028B0009204910C002A0CD12000FFF7E9FE636816
:1028C0001A686369DBB208335B01D3187F22DA71BF
:1028D000F7BDE269002A21D1220001256C32616630
:1028E0006846E5615A60FFF78FFE26002000210050
:1028F000019B6836013BB430B5315A1C33D035707A
:1029000002785F1ED2B20A700A78002A04D1200031
:102910000193FFF7BDFEE8E73B00EEE72200B0328F
:1029200011600022E2612200203268465A60FFF7FF
:102930006BFE0125260020002100019BB436013BDF
:102940006830B5315A1C0ED0357002785F1ED2B295
:102950000A700A78002A04D120000193FFF798FE3C
:10296000E8E73B00EEE768460193FFF754FEA6E771
:1029700013B56A4600230C00D01DD371FFF7F6FC97
:10298000236818186B462060D87916BD03290ED12C
:1029900080220E4B62311B68FF31585C5242024369
:1029A0005A5468226339FF32FF399954704701291C
:1029B000FCD18022054B24311B68FF31585C524208
:1029C00002435A5428222339FF32EDE73007002012
:1029D00070B50024274B0121050020001C70FFF773
:1029E00049FA01212000FFF749FA234B0121200079
:1029F0001C70FFF73FFA01212000FFF73FFA202368
:102A00001E4A0520D1690B43D3610F21FFF788FAD5
:102A10000F210620FFF784FA194B1A4A5A805A7878
:102A200052B2002AFBDB1848FFF77EF9174C200052
:102A3000FFF7A8FD2000FFF7B7FD7F212368C12025
:102A40001A7880000A401A70042219780A430C216F
:102A50001A701A898A430E491A810A581202120AF8
:102A60000A5080220A6019787E3A0A431A700123BC
:102A70002B7070BD990400209804002000040040D1
:102A8000000C0040064000004134000030070020E8
:102A900000E100E00078002810D00121084B1B68FD
:102AA0001A898A431A810822198B0A431A8304223D
:102AB000198B0A431A830022024B1A607047C046E2
:102AC00030070020280700200A000E498B699B0B65
:102AD0009B038B610B680221FF331972987982394D
:102AE00001439971197A8907FCD57F20064B024072
:102AF000997A8143114380229972997A52420A430A
:102B00009A727047300700200050004100200B7976
:102B100010B583420AD10800FFF736FC002805D122
:102B2000034A013093699B0B9B03936110BDC04620
:102B300030070020F7B50D001100832A19D1EBB240
:102B4000384C5A01A21891693748AD010840C0219C
:102B5000890501439161354920686D18702108335A
:102B600055615B011A5C8A43110040220A431A54E2
:102B7000F7BD022A52D12E4BAA00D058002802D00D
:102B800003685B699847B82000F014FE0400294BE5
:102B9000FF260360234B4360083000F013FE29003A
:102BA00022000023606868323140A3616561E361FF
:102BB000236663664901137053649364443213724D
:102BC000411853728B68184AAD001A40C0239B0508
:102BD00013438B606269036832401100019207223F
:102BE00008314901CF5C9743BC460327624617432F
:102BF000CF542700019A203752018218576062692A
:102C00002000324052019B1801229B19997A0A43F5
:102C10009A72FFF73DFD064BEC50A9E72800FFF73D
:102C20004DFCA5E730070020FFFFFF8F6405002063
:102C30007C040020F43D000070B505000124064B23
:102C4000A200D258002A05D021002800FFF772FF09
:102C50000134F4E770BDC046F4000020084B8A0040
:102C6000D05810B5002803D003689B68984710BD62
:102C7000044BC9B24901591888688004800CF6E7F2
:102C80007C0400203007002010B50C00FFF7E6FFA1
:102C900000280CD0064BE4B2196880230834640184
:102CA0000C1962795B42134363710223E37110BD17
:102CB0003007002070B5CBB2124A13485C0189017D
:102CC0008918021951609168104D08330D40802118
:102CD00089022943402591609168890B890391609D
:102CE00001685A018A1816793543157195796D0670
:102CF000FCD55B01C918CB79DB07FCD500198068CE
:102D0000C0B270BD6405002030070020FF3F00F016
:102D100070B5140040220B4B0D001B68FF3359792E
:102D20000A435A710021FFF7C5FFA04200D92000D5
:102D300000230549A34203D0CA5CEA540133F9E7F2
:102D400070BDC046300700206405002010B50C4857
:102D5000C9B24901421893689B049B0C3F2B0BD9C5
:102D60009468403B9B04A40B9B0CA40323439360F7
:102D700041188868C0B210BD93689B0B9B03F6E7AF
:102D800030070020F0B51C002F4B85B01B680600F3
:102D90000D000192002B54D02C4F3B78D8B2002B61
:102DA00002D10100FFF76AF864233B70284BAA00A8
:102DB000D058002808D0036822005B680199984722
:102DC0000400200005B0F0BD29003000FFF746FFE9
:102DD000844204D929003000FFF740FF0400290095
:102DE0003000FFF7B3FF0121EBB21A4F03935B01F1
:102DF0000293029A3B6801989B18FF335A7A0A4360
:102E00005A72154BA9012200C91800F0C1FD002C0F
:102E1000D7D029003000FFF721FF0028D1D1402171
:102E2000039B3A6808335B01D31818790143197181
:102E30000121D971029BD318FF339A7A0A439A72FF
:102E4000BFE701246442BCE7280700209804002063
:102E50007C040020300700206405002013B56B4679
:102E6000DC1D22000123FFF78DFF012801D120780E
:102E700016BD01204042FBE7F0B51C003A4B85B07F
:102E80001B680E000192002B3FD08023DB019C4287
:102E90003BD8364D2B78D8B2002B02D10100FEF77B
:102EA000EDFF642300272B70314BB201D31802933E
:102EB000002C2CD02F4B1B680393FF2333401D00A5
:102EC00000930835039B6D015D19AB79DB0921D0B7
:102ED000294B2A49186800F0DBFC294B172158437D
:102EE00000F0D6FC274BEA79920713D49A5D002AAA
:102EF00001D10138F7D201229A55009B5A011D4B8E
:102F00009B189A69920B92039A6101277F423800BD
:102F100005B0F0BD00221B4B25009A553F2C00D96F
:102F20003F252A000199029800F032FD009BA90478
:102F30005A01104B890C9B18029A7F195A619A69A1
:102F4000641B920B92030A439A61009B039A083315
:102F50005B01D3180222DA715979823A0A435A7115
:102F6000019B5B190193A3E7280700209904002027
:102F7000A4040020300700209C00002040420F00E5
:102F8000701101009B04002070B50C001D000D4B5A
:102F9000A601F618110030002A0000F0F9FCE4B296
:102FA000094A640114196661A369084928000B40A5
:102FB000A361A169AB04890B9B0C89031943A1612F
:102FC00070BDC046A404002030070020FF3F00F081
:102FD000F7B5104B0F001B7814000190002B0CD19B
:102FE0000D4B16001D78002D09D00C4E0C4835886D
:102FF00028182D1900F0CCFC35802000FEBD002ED5
:10300000FBD033007A1900210198FFF7BDFF2D187E
:10301000361AF4E7240600202507002026070020A2
:1030200025060020F8B500200D00140000AF012A8D
:1030300027D9D31D6A46DB08DB00D31A9D4608005A
:1030400000F072FD6E460323022200210130400091
:1030500030707370A2420DD2287800280AD0531C19
:10306000DBB20135B0549C4203D00232F154D2B2EB
:10307000F0E7220031000448FFF7AAFF431E984101
:10308000C0B2BD46F8BDC04678040020F0B50025AA
:10309000012785B0184B0E0069461F70040000958B
:1030A000FFF766FC154B01A90B806A3BFF3BCB7118
:1030B0005A330B72009B320009334B800E4B8D71DB
:1030C0004F7108711D70092E0FD00D4E09223770F7
:1030D0000C4F200000953D80FFF77AFF69462000E5
:1030E000FFF746FC3A88084935702000FFF770FF6B
:1030F000012005B0F0BDC0462406002009020000F2
:1031000025070020260700202506002070B5CB7873
:1031100005000E0092B0022B09D1C9882648FFF79E
:10312000B5FF441EA041C4B2200012B070BD012BF7
:103130000BD1CA882149112A11D8D2B2002A0ED047
:103140002800FFF745FF0124EEE70024032BEBD115
:103150008B78A34205D1CA881949032AEDD90A7888
:10316000EEE7022B06D18A7916492800FFF75AFFAD
:103170000400D9E7012B02D18A791349F5E7032B23
:10318000D2D1124B01A91868FFF77FF9104B03A9A0
:103190001868FFF77AF90F4B05A91868FFF775F95A
:1031A0000D4B07A91868FFF770F96B460533DC77FC
:1031B000B27901A9D9E7C04678040020343E000066
:1031C000243E0000103E0000283E00000CA08000BD
:1031D00040A0800044A0800048A0800073B5060095
:1031E00048780D000B2810D800F048FB061B0F3163
:1031F0000F474C7450536D70097801AA002906D10D
:10320000022311803000FFF7BFFE012076BD0023AE
:103210001380314B1B78012B00D113700223002146
:10322000F0E78A780023012A09D16A4693802B4B64
:103230001B78012B00D11371022301AAEFE7264A64
:103240001370274A93699B0B9B039361DDE78C788E
:10325000012C07D1214B01AA1C70224B1B78137043
:103260002300DCE7002C08D101201B4B1C4A1870FE
:1032700093699B0B9B039361C8E73000A978FFF724
:1032800023FCC2E73000FFF741FFBFE70123164AE6
:10329000C5E70B780020DB06B8D13000FFF7CCFC87
:1032A0002A200221AA78104BFF301A600C4A1368BA
:1032B0001C5C21434A241954FF34195D2938FF3816
:1032C00001431955D4E70123084AA8E78A78074B38
:1032D0001A60B6E7002099E79A040020A2040020B3
:1032E00030070020E83D0000280700202C070020C0
:1032F0004B4BF7B51C780700002C00D08FE0494EEF
:1033000033689B8B1B070ED521002000FFF7D6F8F2
:10331000326810231100FF31887A03438B72424BCD
:103320001C600823938333689A8B52071FD50422AD
:103330009A833E4A1378002B0AD01378013BDBB204
:1033400013701378D8B2002B02D10121FEF796FD3D
:10335000374A1378002B0AD01378013BDBB2137085
:103360001378D8B2002B02D10121FEF787FD336814
:10337000FF331A7AD2061ED510221A7259793032CA
:103380000A435A7160232B4938000A781A423BD10C
:10339000FFF724FF3368FF33002838D08022997963
:1033A00052420A439A711A7A520604D540221A727E
:1033B000597A0A435A72336807241D8C01239D43AE
:1033C000EDB20193E1B2002D29D0002C27D02B00C3
:1033D0002341019A134215D02300326808335B0160
:1033E000D318DA79D20702D4DB799B0707D5124BC1
:1033F000A200D05800280ED003681B689847019B94
:10340000A3409D43013CDDE7FFF780FBC2E720219D
:103410000A4A9171C7E73800FFF7B8FAEFE7F7BD3E
:1034200025070020300700202807002099040020ED
:1034300098040020640500207C040020FF50004117
:1034400010B50248FFF754FF10BDC04678040020B5
:10345000014B024A1A6070473007002000500041BB
:103460000120704710B50368014A1B6A984710BDD8
:103470001304000010B504000069FEF747FE2000A9
:10348000143000F0BBF92000203000F0B7F910BD77
:1034900010B5143000F0C7F910BD10B504002000BD
:1034A000203000F0C0F90028F9D12069FEF745FE70
:1034B00010BD10B5203000F0BCF910BD70B506008D
:1034C00004001436300000F09DF9230030331B78DF
:1034D0000500FF2B07D0300000F0ABF90A2802DD11
:1034E000A36BE26B1A60280070BD10B5143000F0B9
:1034F000AEF910BDF7B51D0008AB1B7804000093B2
:1035000009AB1B781600019300234360FA239B004C
:1035100083600D4B0F0008330360143000F052F944
:103520002000203000F04EF92300009A2C33276150
:103530009A70019A1E70DA7022005D70FF2330329B
:10354000200013701374FEBD483E000070B50400E7
:103550000069FEF7FEFD002815D025002069FEF762
:103560000DFE14350100280000F03BF92300303334
:103570001B78FF2B07D0280000F05BF9092802DC3C
:10358000636BE26B1A602069FEF7F3FD00280DD033
:1035900025002035280000F046F9002812D0280028
:1035A00000F030F9C1B22069FEF7ECFD2069FEF7AA
:1035B000D5FD002805D02069FEF7D4FD2069FEF76F
:1035C000C4FD70BD2069FEF7E9FDEFE7F8B5040022
:1035D00000690D002600FEF7CCFD2036002834D10E
:1035E0003F27300000F03EF9002825D0EFF310838C
:1035F0000122134211D1EFF305831A003A403B42F6
:10360000EFD0103A53B2002A10DA0F221340083BD1
:10361000134A9B089B009B181B682069FEF7A9FDB5
:103620000028DED02000FFF791FFDAE79B080D4A63
:10363000C0339B009B58F0E73000290000F0D1F820
:103640002069FEF7A7FD0120F8BD300000F0EBF87F
:103650000028C5D129002069FEF794FDF3E7C04694
:103660001CED00E000E100E0F0231B011940802385
:1036700006209B0099420AD00133FF330130994262
:1036800005D0802300205B00994200D105307047AF
:103690000F2001400020012903D00239481E81413A
:1036A000481C70470300F0B5040085B003912C332B
:1036B0000E2118781500FEF733FC230026002D3369
:1036C00018780E212F36FEF72BFC3378022B07D10A
:1036D000230040331878FF2802D00E21FEF720FC8B
:1036E000270030373878FF2814D00121FEF7C2FBBD
:1036F0000C213B781B4A59438B5C521851780122AC
:103700008A401948DB01181860631848E2631B18E7
:10371000A3631A600122039B11002069FEF784FD58
:1037200029002000FFF7A0FF290007002000FFF775
:10373000AFFFF0221540303D6A4255410300390089
:10374000206901220095FEF7B1FC23002E331A7880
:1037500031782069FEF7C7FC2069FEF7E4FC05B06C
:10376000F0BDC046703D00001844004114440041C3
:103770007047000010B5FEF74DFB00F0D1F8FFF7E1
:10378000F7FF0120FEF7DCFA084C2000FFF720F9D4
:103790002000FFF77FF9FDF777FFFDF78FFF044B60
:1037A000002BFAD000E000BFF7E7C0467804002005
:1037B0000000000010B500F0D7F810BD10B500F003
:1037C000DDF810BD10B50400802000F0CDF8802297
:1037D0000021206000F0E5F8002320006360A36072
:1037E00010BD7F22436810B50133134082689A42AE
:1037F00003D042680468A154436010BD00234360B5
:1038000083607047826843689A4209D07F21836849
:103810000268D25C836801330B40836010007047FC
:1038200001204042FBE743688068181A00D58030C9
:103830007047426883689A4204DB43688068C01A14
:103840007F30704783684068181A0138F9E782684A
:1038500043689A4203D083680268D05C70470120B5
:103860004042FBE703007F2240689B680130104024
:10387000C01A43425841C0B27047000002B47146BA
:1038800049084900095C49008E4402BC7047C046A3
:10389000002934D00123002210B488422CD3012403
:1038A0002407A14204D2814202D209011B01F8E798
:1038B000E400A14204D2814202D249005B00F8E751
:1038C000884201D3401A1A434C08A04202D3001B7D
:1038D0005C0822438C08A04202D3001B9C082243B0
:1038E000CC08A04202D3001BDC082243002803D0EE
:1038F0001B0901D00909E3E7101C10BC704701B592
:10390000002000F00BF802BD0029F8D003B5FFF746
:10391000C1FF0EBC4243891A1847C0467047C046D3
:1039200070B500260C4D0D4C641BA410A64209D1A5
:10393000002600F011F90A4D0A4C641BA410A6429F
:1039400005D170BDB300EB5898470136EEE7B300E0
:10395000EB5898470136F2E7680100206801002023
:10396000680100207801002010B5034B01001868A1
:1039700000F06AF810BDC0460401002010B5034BEA
:103980000100186800F016F810BDC04604010020C0
:10399000002310B59A4200D110BDCC5CC454013351
:1039A000F8E703001218934200D1704719700133F1
:1039B000F9E7000070B50500002910D00C1F23683E
:1039C000002B00DAE418280000F0B5F81D4A13684F
:1039D000002B05D163601460280000F0ADF870BDC5
:1039E000A34209D9216860188342F3D118685B6843
:1039F00041182160EEE713005A68002A01D0A24264
:103A0000F9D919685818A0420BD12068091858181C
:103A100019608242E0D110685268411819605A60FA
:103A2000DAE7A04202D90C232B60D5E721686018A1
:103A3000824203D1106852684118216062605C6064
:103A4000CAE7C04634080020F8B50323CD1C9D43C7
:103A5000083506000C2D1FD20C25A9421ED83000B7
:103A600000F069F825490A681400002C1AD1244F87
:103A70003B68002B04D12100300000F043F838608F
:103A80002900300000F03EF8431C2AD10C233000FE
:103A9000336000F051F803E0002DDEDA0C233360D0
:103AA0000020F8BD23685B1B18D40B2B03D92360BF
:103AB000E418256003E06368A2420DD10B6030007A
:103AC00000F03AF8200007220B30231D9043C21A61
:103AD000E7D01B1AA350E4E75360F0E722006468C4
:103AE000C3E70323C41C9C43A042E2D0211A300048
:103AF00000F008F8431CDCD1C8E7C04634080020B9
:103B000038080020002370B5064C0500080023602B
:103B100000F014F8431C03D12368002B00D02B6065
:103B200070BDC046400800200023C25C0133002A5B
:103B3000FBD1581E7047704770470000044A136855
:103B4000002B03D01818106018007047014BF9E7DC
:103B50003C08002044080020F8B5C046F8BC08BC6A
:103B60009E467047F8B5C046F8BC08BC9E467047F4
:103B70000000891112239B322446AD573665BF746D
:103B8000488CC19D5AAFD3BE6CCAE5DB7EE9F7F81D
:103B90008110080193331A22A5562C47B7753E644D
:103BA000C99C408DDBBF52AEEDDA64CBFFF976E8FD
:103BB00002218B30100299132667AF763444BD552D
:103BC0004AADC3BC588ED19F6EEBE7FA7CC8F5D9DD
:103BD00083310A2091121803A7772E66B5543C450D
:103BE000CBBD42ACD99E508FEFFB66EAFDD874C9BD
:103BF00004428D5316619F702004A9153227BB36ED
:103C00004CCEC5DF5EEDD7FC6888E1997AABF3BA9C
:103C100085520C4397711E60A1142805B3373A26CC
:103C2000CDDE44CFDFFD56ECE9986089FBBB72AA7C
:103C300006638F7214409D512225AB343006B917AC
:103C40004EEFC7FE5CCCD5DD6AA9E3B8788AF19B5C
:103C500087730E6295501C41A3352A24B11638078C
:103C6000CFFF46EEDDDC54CDEBB962A8F99A708B3C
:103C7000088481951AA793B62CC2A5D33EE1B7F06C
:103C80004008C919522BDB3A644EED5F766DFF7C1C
:103C9000899400859BB712A6ADD224C3BFF136E04C
:103CA000C1184809D33B5A2AE55E6C4FF77D7E6CFC
:103CB0000AA583B4188691972EE3A7F23CC0B5D12C
:103CC0004229CB38500AD91B666FEF7E744CFD5DDC
:103CD0008BB502A499961087AFF326E2BDD034C10C
:103CE000C3394A28D11A580BE77F6E6EF55C7C4DBC
:103CF0000CC685D71EE597F42880A1913AA3B3B2EC
:103D0000444ACD5B5669DF78600CE91D722FFB3E9B
:103D10008DD604C79FF516E4A9902081BBB332A2CB
:103D2000C55A4C4BD7795E68E11C680DF33F7A2E7B
:103D30000EE787F61CC495D52AA1A3B03882B193AB
:103D4000466BCF7A5448DD59622DEB3C700EF91F5B
:103D50008FF706E69DD414C5ABB122A0B99230838B
:103D6000C77B4E6AD5585C49E33D6A2CF11E780F3B
:103D7000000219087F00000080000280000E190870
:103D80003F40000080061080000F19083F700000BF
:103D900019070180001619081F40000080160680D0
:103DA000001719080F40000080161280001819082B
:103DB0000F80000080161280001919080F80000083
:103DC000801612800000000000000000E5220000C4
:103DD00011230000E122000005230000F922000069
:103DE000492300002D230000000000000000000017
:103DF0000000000091280000452800003328000042
:103E00002128000089240000B1240000252600009C
:103E100041726475696E6F204E616E6F20457665E4
:103E2000727900000403090441726475696E6F20A1
:103E30004C4C430012011001020000404123580085
:103E4000000101020301000000000000000000006A
:103E5000CD35000065200000B33400009B34000025
:103E600091340000BD340000EB34000065340000E4
:103E7000A536000075340000613400000000000029
:103E800010B572B68122114B92000433934213D3C2
:103E90000F4A01211000147D0C42FCD02021148B0C
:103EA000FF319B085B0021431183D361094B1380D1
:103EB0000123027D1A42FCD0BFF34F8F064B074A05
:103EC000DA60BFF34F8FC046FDE7C0460010000028
:103ED0000040004102A5FFFF00ED00E00400FA05EC
:103EE0008601010701010107060100000000000032
:103EF0004A544147494345206D6B49490000000041
:103F000000C20100FF0813040165736172454D563C
:103F10004E20676F72504D564E00000040420F0019
:103F2000FFFFFFFF40420F00FFFFFFFF00C2010045
:103F3000000008000904000001020200000524003E
:103F400010010424020605240600010524010101D4
:103F50000705810310001009040100020A00000097
:103F60000705020240000007058302400000000030
:103F7000FFFFFFFF000000008300000002000000C0
:103F80008200000008010020000000000000000086
:103F90000000000000000000000000000000000021
:103FA0000000000000000000000000000000000011
:103FB0000000000000000000000000000000000001
:103FC00000000000000000000000000000000000F1
:103FD00000000000000000000000000000000000E1
:103FE0000000000000000000B5100000291C0000C7
:103FF00061240000513400008D100000000000001A
:0400000300001CA934
:00000001FF
